:1010000000000420B5120000DD120000DF12000015
:10101000E1120000E3120000E512000000000000F1
:10102000000000000000000000000000E7120000C7
:10103000E912000000000000EB120000ED120000B9
:1010400075FA0000EF120000EF120000EF1200002E
:10105000EF120000EF12000009F70000EF1200008D
:10106000EF120000EF120000EF120000EF1200007C
:10107000EF120000EF120000EF120000EF1200006C
:10108000EF120000A1570000EF120000EF12000065
:1010900041580000EF120000EF120000EF120000B4
:1010A000EF120000EF120000EF120000EF1200003C
:1010B000EF120000EF12000000000000000000002E
:1010C000EF120000EF120000EF120000EF1200001C
:1010D000EF120000EF120000EF120000F11001000B
:1010E000EF120000EF120000BD91010000000000AF
:1010F00000000000EF12000000000000EF120000EE
:1011000000000000000000000000000000000000DF
:1011100000000000000000000000000000000000CF
:1011200000000000000000000000000000000000BF
:1011300000000000000000000000000000000000AF
:10114000000000000000000000000000000000009F
:10115000000000000000000000000000000000008F
:10116000000000000000000000000000000000007F
:10117000000000000000000000000000000000006F
:10118000000000000000000000000000000000005F
:10119000000000000000000000000000000000004F
:1011A000000000000000000000000000000000003F
:1011B000000000000000000000000000000000002F
:1011C000000000000000000000000000000000001F
:1011D000000000000000000000000000000000000F
:1011E00000000000000000000000000000000000FF
:1011F00000000000000000000000000000000000EF
:1012000010B5054C237833B9044B13B10448AFF340
:1012100000800123237010BDD800002000000000D2
:10122000BC1D020008B5034B1BB103490348AFF3D3
:10123000008008BD00000000DC000020BC1D020092
:10124000154B002B08BF134B9D46A3F5803A002198
:101250008B460F461348144A121A1BF040FC0F4BE2
:10126000002B00D098470E4B002B00D09847002051
:10127000002104000D000D48002802D00C48AFF3F7
:1012800000801BF0CDFB2000290015F005FA1BF0B3
:10129000A1FB00BF000008000000042000000000C7
:1012A00000000000D80000201C14012000000000F5
:1012B000000000000649074A074B9B1A03DD043B68
:1012C000C858D050FBDC10F0FFFDFFF7B9FF00005D
:1012D000EC1D020008000020D8000020FEE7FEE719
:1012E000FEE7FEE7FEE7FEE7FEE7FEE7FEE7FEE7D6
:1012F000074B1B5C1F2B8ABF064A4FF0A04203F02E
:101300001F03D2F80405D840C04300F00100704725
:10131000D4DD010000030050074B1B5C1F2B86BF70
:1013200003F01F0305494FF0A041012202FA03F325
:10133000C1F80C35704700BFD4DD01000003005038
:10134000074B1B5C1F2B86BF03F01F0305494FF0A3
:10135000A041012202FA03F3C1F80835704700BF2B
:10136000D4DD01000003005030B44FF0A043094920
:1013700040254FF480744FF400704FF48052C3F84E
:101380000855C3F80845C1F80805C3F8082530BC5E
:10139000704700BF0003005030B44FF0A04309492C
:1013A00040254FF480744FF400704FF48052C3F81E
:1013B0000C55C3F80C45C1F80C05C3F80C2530BC1E
:1013C000704700BF000300500A4B195C1F298ABFF9
:1013D00009484FF0A04001F01F01D0F80435012268
:1013E0008A4022EA03011340C0F80815C0F80C3502
:1013F000704700BFD4DD010000030050034BD3F859
:1014000010056FEA901000F00100704700030050D3
:10141000263818BF4FF0FF30704700BFC30706D40F
:10142000830742BF2E4B0C22C3F81827704770B4B5
:101430004FF08043D3F84036DA0722D44FF0A04370
:101440002749032240264FF480754FF40074C3F8F7
:101450001827C3F82027C1F82427C3F83027C3F87A
:1014600008654FF48052C3F80855C1F80845810754
:10147000C3F8082503D51A4B0C22C3F8182770BCF3
:1014800070474FF01023D3F8043303F00703072B02
:10149000D4D1144B0122C3F80425D3F80024002A28
:1014A000FBD04FF010210020D1F804230D4C22F086
:1014B000070242F00402C1F80423C3F80405D4F87B
:1014C0000034002BFBD0BFF34F8F0749074BCA688E
:1014D00002F4E0621343CB60BFF34F8F00BFFDE720
:1014E0000003005000E0014000ED00E00400FA05B8
:1014F00050E8002F0B4640E8003C9CF0000FF7D16D
:101500001046704750E8003F43EA010240E8002CD3
:101510009CF0000FF6D11046704700BF50E8003F26
:1015200003EA010240E8002C9CF0000FF6D11046BF
:10153000704700BF50E8002F02EB010340E8003C79
:101540009CF0000FF6D11046704700BF50E8003FF6
:1015500003EB010240E8002C9CF0000FF6D110468E
:10156000704700BF50E8003FA3EB010240E8002CA9
:101570009CF0000FF6D11046704700BF50E8003FC6
:101580008B422CBF5A1A1A4640E8002C9CF0000FE0
:10159000F4D11046704700BF012350E800CF4CEA59
:1015A000030240E8002191F0000FF6D16046704739
:1015B000002350E800CF0CEA030240E8002191F03C
:1015C000000FF6D160467047002350E8002F02EA72
:1015D000030C40E800C191F0000FF6D1604670475F
:1015E00099B110B4B2FBF3F403FB1424A4B244B9D0
:1015F000C0E9001484608281C38120465DF8044BF9
:10160000704709205DF8044B70470E20704700BFFB
:1016100030B482B050E8013F9DB2C489254484892A
:10162000A54228BF2D1B0489A54202BFBFF32F8FFF
:10163000002207E0C5EA030540E80154002CE9D187
:101640004FF001028DF803200193019B9DF80320C8
:101650000B602AB10B880068184402B030BC704798
:1016600002F0FF031846F8E70A884B889A4201D037
:101670000020704750E8012FC2EA024240E80123EF
:10168000002BF7D10120704730B482B050E8023F00
:101690001FFAA3F5C488A54202BFBFF32F8F002213
:1016A0000DE0C48925448489A54228BF2D1BC3EAC7
:1016B000054540E80254002CE8D14FF001028DF8B6
:1016C00003200193019B9DF803200B602AB14B88F6
:1016D0000068184402B030BC704702F0FF0318469F
:1016E000F8E700BF0A884B889A4201D00020704773
:1016F00050E8022FC2EA224240E80223002BF7D131
:10170000012070470220FFF75FBE00BF2DE9F041C6
:101710000C460546FFF77CFEB8B9012C17D00BD359
:10172000022C12D1134B5C787CB1134B1B6863B154
:101730002046BDE8F0411847104804F0FFFA0D4A72
:101740000F4B94781B78A342EED0BDE8F081094E90
:10175000737834781BB90A4BB2781A70E4E7094FF2
:1017600006483A464FF4004104F09AFA0028F2D1B4
:101770003D70F0E7580100206401002018010020AE
:101780006C010020F400002010B50078FFF740FE47
:1017900040B9054B587828B1044B1B6813B1BDE81C
:1017A0001040184710BD00BF580100206401002000
:1017B000B44B1B68DB0700D4704770B5B24DB34E15
:1017C0002B7834786BB1B24B1B7800202870002B3B
:1017D0004BD0FFF7B5FD0120FFF7B2FD0320FFF767
:1017E000AFFD172C40D8DFE814F0B600F400F40089
:1017F000DC000801CA001301EE0050004300500055
:101800004300610018001800180018001800660056
:1018100077008B009F005D005D009E4804F08EFA0B
:10182000D4F11104054600F00081002840F0FD804D
:10183000012C13D0C82303FB04F44FF4FA704FF4C7
:1018400000430021C3FB04014FF47A7200231CF013
:1018500035F92A4601468F4804F022FA0220FFF7A4
:101860005BFD8B4B01221A7070BDFFF77DFDB8E761
:10187000012318462B70FFF7A7FD00224FF480418B
:101880008548BDE8704004F00BBA012318462B7060
:10189000FFF79AFD002240F6CD417F48BDE8704039
:1018A00004F0FEB9FFF778FD347070BDFFF774FDEA
:1018B0000C23337070BD764B1B78002B00F0BF807B
:1018C0000020FFF73DFD0120FFF73AFD0320FFF761
:1018D00037FD1223337070BD6D4B1B78002B00F069
:1018E000B1800020FFF72CFD0120FFF729FD032028
:1018F000FFF726FD0020FFF70FFD1323337070BDA7
:10190000634B1B78002B00F0AD800020FFF718FD23
:101910000120FFF715FD0320FFF712FD0120FFF75F
:10192000FBFC1423337070BD594B1B78002B00F067
:1019300083800020FFF704FD0120FFF701FD032055
:10194000FFF7FEFC0020FFF7E7FC0120FFF7E4FCB7
:101950001523337070BD4E4B1B78002B00F08A802E
:101960000020FFF7EDFC0120FFF7EAFC0320FFF762
:10197000E7FC494804F0E2F90023337070BD002011
:10198000FFF7B6FC002860D00020FFF7D9FC052344
:101990003370002241F69A113F48BDE8704004F0D0
:1019A0007FB90020FFF7A4FC00285ED00020FFF7DD
:1019B000C7FC46F266610323337000223648BDE857
:1019C000704004F06DB90020FFF7A6FC07233370C8
:1019D00070BD0020FFF78CFCD0B30020FFF7B0FCF7
:1019E000022C4EF2666118BF4FF4003134700022B1
:1019F0002948BDE8704004F053B90020FFF778FC97
:101A0000D8B30020FFF79CFC4FF400310423D3E748
:101A10000020FFF7D9FC06233370002240F6CD41A9
:101A20001D48BDE8704004F03BB90220FFF788FC78
:101A3000174B00221A7070BDFFF796FC82E7FFF784
:101A400093FC46E7FFF790FC54E7FFF765FC9EE741
:101A5000FFF762FC43F2333141F69A13022C08BFC0
:101A60001946C3E7FFF780FC58E7FFF755FC41F63E
:101A70009A11A0E7FFF778FC7BE7FFF74DFC43F2F4
:101A80003331C3E75C0100206001002068010020C1
:101A9000F5000020F80000203801002008B10020E7
:101AA0007047FFF7ABBC00BF38B5214B214A196026
:101AB0008307106000F0010503D49DB92C46204631
:101AC00038BD1D4B1D480E241C7040F2666201217A
:101AD00000F044F90446B8B115B10120FFF79EFCAF
:101AE000204638BD0120FFF799FC154A1548002112
:101AF00004F0C4F804460028F2D1134A1348012127
:101B0000BDE8384004F0BAB800F080F90446002877
:101B1000E2D101460E4A0F4804F0B0F80446002D09
:101B2000DED00120FFF77AFC002CDED0D8E700BF22
:101B3000640100205C01002058010020D8DD010074
:101B4000B1170000E8DD010005170000E0DD01002D
:101B500089170000E4DD010070B9012A08D00129CD
:101B600011D00BD3022907D1094B00205A707047BE
:101B7000012907D00246F2E707207047044B0020F6
:101B80009A7070470E22024B00201A70704700BFF7
:101B900058010020434B1978002900F081802DE97D
:101BA000F04F002487B001258E4603E00134E4B2F3
:101BB000744560D23C4B27B21E6816F837C0ACF1B2
:101BC000200205FA02F9394ACCF12003D2E90001DA
:101BD00025FA03F349EA030905FA0CF800EA0802BA
:101BE00001EA0903134306EBC70BDFD021EA09031F
:101BF0002E4920EA08026046C1E900230DF074FD79
:101C000016F837C0ACF1200205FA02F201920199F0
:101C1000CCF12003C6B225FA03F3ACF1200219433C
:101C200006FA02F30393224B0191D3E90023CDE995
:101C3000042305FA0CF30093CCF12001039B26FA50
:101C400001F10B43039306FA0CF30293DDE90467F9
:101C5000DDE9002316401F4032463B46DDE90267BE
:101C6000BB4208BFB24209D00E4B013493F800E0EA
:101C7000E4B274459ED307B0BDE8F08F9BF8011025
:101C8000DBF80430A1F10101B1FA81F14909091A27
:101C9000B1FA81F14909002BE6D060469847E3E7A5
:101CA000704700BF6D010020A8010020A0010020A6
:101CB000980100202DE9F84F0646244804F03EF82C
:101CC000D8B9234F0123A6F1200103FA01FBC6F185
:101CD0002002D7E9000123FA02F24BEA020B03FAD1
:101CE00006FA00EA0A0201EA0B03134307D020EACE
:101CF0000A0421EA0B05C7E90045BDE8F88F304624
:101D00000DF0F2FC134ED6E90089C8B148EA0A0387
:101D100049EA0B049846A146D7E900234BEA03059C
:101D20000D4B0A4819684AEA02044B464246C6E986
:101D30000023C7E900450022BDE8F84F03F0B0BF1B
:101D400028EA0A0829EA0B09E6E700BF7401002027
:101D5000A00100209801002070010020042A36D93B
:101D60002DE9F04182B00E46054614460DF080FB89
:101D7000002836D01D491E4A1E4B0D601E481F49C3
:101D80001C60167000230022741EC0E90023C1E904
:101D90000023E4B2EEB105EBC404194F083D4FF047
:101DA0000008032601E0AC4213D0A37820788DF818
:101DB00006803A4601A98DF804608DF805300DF0D3
:101DC00061FB083C0028EED002B0BDE8F08107209E
:101DD00070470C4A0C48002103F050FF02B0BDE8E8
:101DE000F0810DF0FFFA0028C4D0EDE7A801002033
:101DF0006D0100207001002098010020A00100204A
:101E0000B51C0000951B0000ECDD010070B5084D0D
:101E10002B785BB1074E00243368012113F834009E
:101E20000DF0E6FB2B780134A342F5D8002070BDFD
:101E30006D010020A80100200346BAB11088A1B1AD
:101E4000194401395A1E12F8013F40BA80B243408A
:101E5000C3F30310584080EA003000B2430103F49A
:101E6000FF5358408A4280B2EDD170474FF6FF7061
:101E7000E5E700BF50B161B110B5044661608B6801
:101E80001146984708B9044B236010BD48F2015031
:101E9000704748F21050704763414553B0B1036832
:101EA0000C4A93420AD002F17F6202F5402202F509
:101EB0007C72934202D048F20250704710B54368DA
:101EC0000446DB6898470023236010BD48F20150A8
:101ED000704700BF634145532DE9F04182B011B313
:101EE00016461F4605460C4618B369608B681146B6
:101EF0009847044698B94D4B2B60A7B180466B6854
:101F000039461B6928469847044628B9474B2A6832
:101F10009A4224D048F20254B8F1000F15D120465D
:101F200002B0BDE8F08148F21054204602B0BDE88E
:101F3000F081486803F0D4FA804668B14460A36831
:101F4000314698470446002867D0404603F014FB0A
:101F5000204602B0BDE8F08148F21554DFE76B6817
:101F60005A698AB1089B002B51D0194628469047E0
:101F700048F203539842044601D00028CCD12B6884
:101F80002A4A934223D16B6809991A4611B30B99D7
:101F9000002939D00C99002936D000911C6A099982
:101FA000DDE90A232846A0472B68204A0446A0B151
:101FB000934202D01E4A9342AED16A68D368284643
:101FC000984700232B60B8F1000FBED1A7E748F275
:101FD0000254EFE748F21054F0E7934207D002F1C1
:101FE0007F6202F5402202F57C72934292D16B68C7
:101FF0002846DB68984704460028E2D10C4B2B604A
:10200000B8F1000FA1D18AE748F21354D6E748F29D
:102010001054B8F1000F98D181E7044BC8F8003094
:102020000FB145466BE748F210548EE763414553C4
:102030005345416330B1036848F240508B4208BFBA
:102040000020704748F21050704700BF48B119B1E6
:102050000B68934202D30A600020704748F2145084
:10206000704748F213507047F8B501B3C2B100246D
:10207000C2E90041A3B1C3E900411D4C097954F8FC
:1020800021608EB11D461446A8B12A462146B047AC
:10209000064618B9174A184B22602B603046F8BD27
:1020A00048F213563046F8BD48F20356F6E748F2B8
:1020B00010563046F8BD114B33F81130002BE4D0E8
:1020C000184603F00DFA074648B12A462146B047A4
:1020D000064638B1384603F04FFA3046F8BD48F2AC
:1020E0001556DBE7034A044B22602B60F2E700BF82
:1020F00010DE01007652464D7052464DF0DD010073
:10210000F0B1D1B110B50024C1E9004044798AB1E1
:102110009C420CD100790D4B53F820309BB10C46FA
:1021200020461146984708B9094B236010BD48F274
:10213000115010BD48F2105010BD48F213507047B6
:1021400048F21050704748F2035010BD90DE010075
:102150007652464DD0B130B4114B04689C420ED13A
:102160004368B1B122B15C791568AC420BD81460F8
:102170001A790C4B53F8223073B130BC184748F22F
:10218000405030BC704748F21450FAE748F2105003
:10219000704748F21350F4E748F20350F1E700BFEC
:1021A0007652464DD0DE0100D0B130B4114B0468F8
:1021B0009C420ED14368B1B122B19C791568AC4202
:1021C0000BD814601A790C4B53F8223073B130BC21
:1021D000184748F2405030BC704748F21450FAE7B4
:1021E00048F21050704748F21350F4E748F2035099
:1021F000F1E700BF7052464D50DF010090B110B5BD
:102200000B4A01689142044609D14268094B127990
:1022100053F822304BB198470023236010BD48F299
:10222000405010BD48F2105070471846F4E700BF08
:102230007652464D50DE010090B110B50B4A016850
:102240009142044609D14268094B127953F8223071
:102250004BB198470023236010BD48F2405010BD99
:1022600048F2105070471846F4E700BF7052464DD0
:1022700010DF01002DE9F04F83B0DDE90C895AB37E
:102280000C4607462449204616469A46FFF7D2FEDA
:10229000054618B1284603B0BDE8F08FD4F804B065
:1022A0009BF80520494652004046FFF7CFFE054601
:1022B0000028EFD19BF80430184A52F823508DB112
:1022C0009FB15346324621463846AC46CDF8308061
:1022D00003B0BDE8F04F604748F21055284603B000
:1022E000BDE8F08F48F20355D4E70D4A32F81300E9
:1022F0000028E6D003F0F4F8074650B1CDF800808E
:10230000534632462146A8470546384603F034F97D
:10231000C0E748F21555BDE77652464D90DF010003
:10232000CCDF010048B159B110B541600B680446DB
:10233000984708B9044B236010BD48F2015070471C
:1023400048F21050704700BF6E52464870B1F0B46A
:102350000A4D0668AE4205D159B16AB14368F0BC76
:102360005B68184748F20250F0BC704748F20150D1
:10237000704748F21050F7E71046F5E76E524648AE
:1023800088B1F0B40C4C0568A54208D171B143681E
:102390001568DC68A5420CD39B68F0BC184748F26E
:1023A0000250F0BC704748F20150704748F2135099
:1023B000F7E748F21450F4E76E5246482DE9F0472B
:1023C000DDE9086760B379B341601D460B680446D8
:1023D0009046984708B1BDE8F087DFF86090C4F8F0
:1023E0000090B8F1000F1FD06DB163682A464146D6
:1023F0005B68204698470028EDD123684B4502D002
:1024000048F20250E7E796B163683968DA689142AA
:1024100010D33A46314620469B68BDE8F04718473E
:1024200048F20150BDE8F08748F21050D3E748F277
:102430001350D0E748F21450CDE700BF6E52464823
:10244000F8B50B4D0B4E0C4FAD1B0123ED083B7047
:102450000AD0002401E0A54206D056F8343098474F
:1024600001340028F7D0F8BD02233B700020F8BDEE
:10247000D01D0200C01D0200AC010020064B1A78DE
:10248000022A06D01878A0F10100B0FA80F04009C5
:1024900070470120704700BFAC010020B0B391B37A
:1024A0002DE9F0411C4F1D4B3E689E4203D048F27F
:1024B0000250BDE8F081DFF87080044601230A462F
:1024C0000D46D8F80000214601F018FA48F2715381
:1024D0009842EED1124B6A469A421AD33B68B342F5
:1024E000E5D100231A460F49D8F8000001F03CFB63
:1024F0000028DED12A462146D8F800000123BDE895
:10250000F04101F0FBB948F21450704748F2135003
:10251000704748F21950CCE7980200206572E54BED
:1025200000E003209C0200207C1A0020B0B391B38D
:102530002DE9F0411C4F1D4B3E689E4203D048F2EE
:102540000250BDE8F081DFF87080044600230A469F
:102550000D46D8F80000214601F0D0F948F2715339
:102560009842EED1124B6A469A421AD33B68B34264
:10257000E5D100231A460F49D8F8000001F0F4FA1B
:102580000028DED103462A462146D8F80000BDE8DF
:10259000F04101F0B3B948F21450704748F21350BB
:1025A000704748F21950CCE7980200206572E54B5D
:1025B00000E003209C0200207C1A002070B5164B1E
:1025C0006A469A4210D30D460446FFF757FF70B192
:1025D000124E336823B1124A124B12689A4219D034
:1025E00044B148F2175070BD48F2195070BD4FF415
:1025F000054070BD002DF4D10B480C49306001F04E
:10260000D1F80028EFD13168054B094C054A0C6020
:102610001A6070BD002070BD00E003207C1A00200D
:10262000980200206572E54BB00100209C0200205A
:102630006169614D0139411807D203780A7800F8C1
:10264000012B01F801398842F7D97047013A821805
:1026500007D20139013811F8013F02F801398242ED
:10266000F9D1704710B5012104463048FEF740FF0C
:10267000BFF35F8FB8B904F1080015F059FE2C4B79
:10268000984227D012D8063B984232D025D8B0F5D0
:10269000700F43D030D800283DD1BFF35F8F234B5C
:1026A00000221A6010BD48F2045010BD214B984220
:1026B00009D8013B984225D2023B984219D015D93E
:1026C00048F21450E9E71C4B98421BD01DD8013B3F
:1026D000984220D148F21350DFE7184B984220D897
:1026E000013B98420ED248F21050D6E7023B984286
:1026F00011D148F21150D0E7114B9842F3D0013379
:10270000984208D148F20350C7E70E4B9842F9D0DF
:10271000EA339842F6D048F21650BEE748F201502C
:10272000BBE7094B9842DED0F5E700BF201301203C
:102730000900F0000F00F0001200F0000600F000A9
:102740000100F0001500F0000800F0002DE9F04F46
:10275000814683B00F464C48012116469846FEF745
:10276000C7FEBFF35F8F002847D107F06043B3F186
:10277000005F09D048F21250BFF35F8F424B002236
:102780001A6003B0BDE8F08F08F06043B3F1005F5A
:10279000F0D109F10803044601934FF6F07BC246DD
:1027A0005E4583BFA6F57F45F03D4FF6F0760025E8
:1027B00001F0A6FA99F854300198022B14BF0AEBE5
:1027C000040353463919324615F0F8FC804601F0EF
:1027D000ABFA2E4B9845344428D013D8063B984585
:1027E00033D026D8B8F5700F44D03AD8B8F1000FDE
:1027F00034D1002D45D02E46D2E748F2045003B024
:10280000BDE8F08F224B984509D8013B98452ED260
:10281000023B984519D015D948F21450ACE71D4B2E
:10282000984524D014D8013B984517D148F213504D
:10283000A2E7194B984520D8013B984517D248F29A
:10284000105099E7023B984508D148F2115093E7A0
:10285000124B98450BD0EA33984508D048F21650F1
:102860008AE70F4B9845EAD001339845F6D148F2F4
:10287000035081E748F201507EE70A4B9845DED0CD
:10288000ECE7284678E700BF201301200900F0009C
:102890000F00F0001200F0000600F0001500F0003C
:1028A0000100F0000800F00030B5054683B00C468A
:1028B00039480121FEF71CFEBFF35F8F68B904F0B1
:1028C0006043B3F1005F0CD048F21250BFF35F8F4A
:1028D000314B00221A6003B030BD48F2045003B0FF
:1028E00030BD6B6800945C8801460823E40805F15C
:1028F00008006A46019415F007FC284B984221D045
:102900000CD8063B98422CD01FD8B0F5700F34D0AD
:102910002AD80028DAD048F21650D7E7204B984240
:1029200009D8013B984225D2023B984219D015D9CB
:1029300048F21450CAE71B4B98421BD020D8013BE9
:102940009842E8D148F21350C0E7174B98421ED87E
:10295000013B98420ED248F21050B7E7023B984232
:10296000D9D148F21150B1E7104B9842F3D001335E
:102970009842D0D148F20350A8E748F20150A5E7A9
:102980000B4B9842F6D0EA339842F3D0C3E7094B99
:102990009842E0D0BFE700BF201301200900F000FB
:1029A0000F00F0001200F0000600F0000100F0003F
:1029B0001500F0000800F00038B505460C46354813
:1029C0000121FEF795FDBFF35F8F60B904F060430E
:1029D000B3F1005F0AD048F21250BFF35F8F2D4B66
:1029E00000221A6038BD48F2045038BD214605F176
:1029F000080015F0AFFB284B984221D00CD8063BBD
:102A000098422CD01FD8B0F5700F34D02AD80028A7
:102A1000E3D048F21650E0E7204B984209D8013B3A
:102A2000984225D2023B984219D015D948F2145049
:102A3000D3E71B4B98421BD020D8013B9842E8D1EA
:102A400048F21350C9E7174B98421ED8013B9842F1
:102A50000ED248F21050C0E7023B9842D9D148F25A
:102A60001150BAE7104B9842F3D001339842D0D1BD
:102A700048F20350B1E748F20150AEE70B4B9842E1
:102A8000F6D0EA339842F3D0C3E7094B9842E0D03E
:102A9000BFE700BF201301200900F0000F00F00085
:102AA0001200F0000600F0000100F0001500F00038
:102AB0000800F00070B506460D463D480121FEF7BE
:102AC00017FDBFF35F8F60B905F06043B3F1005F9E
:102AD0000AD048F21250BFF35F8F354B00221A60C4
:102AE00070BD48F2045070BD0446294606F1080046
:102AF00015F048FB2F4B984223D02F4B984238D0EB
:102B00000CD8063B984240D036D8B0F5700F48D06C
:102B1000023B984236D088B90020DCE7274B984228
:102B200020D8013B984239D2023B98422DD002D99D
:102B300048F21450CFE7023B984226D048F2165094
:102B4000C9E703F1C44303F15113326803F58A4323
:102B50009A42F3D106F155012846102219F09BFF45
:102B60002046B8E7164B984218D011D8013B98423E
:102B7000E4D148F21350AEE7124B984214D8013B0F
:102B800098420BD248F21050A5E748F21150A2E744
:102B90000D4B984202D0EA339842CFD148F203500D
:102BA00099E748F2015096E7084B9842EAD0C5E70A
:102BB000201301200200F0000900F0000F00F000D7
:102BC0001200F0000600F0001500F0000800F00010
:102BD00038B504460D4649480121FEF789FCBFF38C
:102BE0005F8FA8B904F1080000F06043B3F1005F03
:102BF00007D048F21250BFF35F8F404B00221A609B
:102C000038BD63685A88802A05D048F21850F2E728
:102C100048F2045038BD1B78082B36D8DFE803F0A3
:102C20000F0F350D05052B2B1100002285B36B1EF0
:102C3000012B09D948F21750DDE70322F6E70122FC
:102C4000F4E7022DF6D105220021002384F8545028
:102C500015F01AFA2A4B984230D01BD8063B9842FE
:102C60003BD02ED8B0F5700F3AD008D80028C2D08B
:102C700048F21650BFE7022DDCD12A46E4E7214B8B
:102C8000984224D001339842F2D148F20350B2E77F
:102C90000121DAE71C4B984209D8013B9842F4D253
:102CA000023B984219D015D948F21450A3E7174BAC
:102CB0009842EAD01BD8013B9842D9D148F2135030
:102CC00099E7134B98420ED8013B9842DDD248F267
:102CD000105090E7023B9842CAD148F211508AE75F
:102CE00048F2015087E70B4B9842F0D0C0E70A4BFF
:102CF0009842CAD0EA339842C7D0B9E720130120DE
:102D00000900F0000100F0000F00F0001200F000D8
:102D10000600F0000800F0001500F0002DE9F04F6B
:102D2000074683B00D46AC48012114461E46FEF707
:102D3000DFFBBFF35F8FF0B90C9B1B689C4209D986
:102D400048F21450BFF35F8FA34B00221A6003B008
:102D5000BDE8F08F220706D07A681278032A02D0E5
:102D600048F21150EEE705F06042B2F1005F07D083
:102D700048F21250E6E748F2045003B0BDE8F08F85
:102D800006F06042B2F1005FF2D14FF6F0794C45A7
:102D900007F1080A4FF000080DD856E0063B9B45A6
:102DA000DED039D8BBF5700F48D03ED8BBF1000F4C
:102DB00025D14C4545D900F0A3FF06EB080305EBF0
:102DC00008014FF6F072504615F0F8F9834600F00E
:102DD000ABFF824BA4F57F449B45A4F1F004C844AB
:102DE00017D0DBD97E4B9B450CD8013B9B4522D2AB
:102DF000023B9B45B4D0A3D8023B9B45B0D048F2E0
:102E000016509FE7774B9B4515D064D8013B9B45F7
:102E1000F5D148F2135095E7734B9B4557D8013BCA
:102E20009B4508D248F210508CE7704B9B45F9D077
:102E300001339B45E3D148F2035083E748F2015048
:102E400080E70C9B1B68454446440C9AA3EB08039F
:102E5000136000F055FF0C9B2146CDE900632A4624
:102E60002346504615F0F0F9044600F05DFF5B4B39
:102E70009C425CD036D8063B9C4270D05AD8B4F500
:102E8000700F6FD071D8002C63D10C9B0C9A1B680B
:102E90004344204613607B681B7813B1032B7FF4F7
:102EA00051AF07F15501504615F06CF94B4B984264
:102EB000AFD024D8063B98423FF452AF68D8B0F563
:102EC000700FBBD070D800283FF43CAF97E7484B59
:102ED0009B45A7D093E7474B9B45ACD0EA339B4536
:102EE000A9D08CE73E4B9C421AD8013B9C4242D26F
:102EF000023B9C4233D02FD948F21450CBE7384BD9
:102F000098423BD8013B984295D2023B98423FF40D
:102F100027AF3FF615AF023B98423FF421AF6EE773
:102F2000304B9C4227D00ED8013B9C4211D148F235
:102F30001350B0E72C4B9C4232D8013B9C421AD232
:102F400048F21050A7E72B4B9C4214D0EA339C4226
:102F500011D048F216509EE7023B9C42F9D148F24C
:102F6000115098E748F2015095E7204B9C42E7D07A
:102F700001339C42EDD148F203508CE7194B984243
:102F80003FF459AF19D8013B98423FF442AF36E7BE
:102F9000154B98421AD8013B9842FFF443AF4AE7D9
:102FA000134B9C42CCD0D4E7104B98423FF43AAF3D
:102FB000013398423FF43FAF21E70E4B98423FF474
:102FC0003AAFEA3398423FF436AF18E7084B9842DD
:102FD0003FF428AF13E700BF201301200900F000E1
:102FE0000F00F0001200F0000600F0000100F000F9
:102FF0000800F0001500F0000B4B98420ED010D9DD
:103000000A4B984202D148F20250704703F5B85378
:103010001833984202D048F21650704748F2425096
:1030200070470028F7D170478408F000080CF000C2
:103030002DE9F0434B68264E85B0804698680C46D3
:10304000174615F021FF012181463046FEF750FA60
:10305000BFF35F8F38BB054600F052FE07F10C014D
:1030600004F108034A460091CDE90185194940461B
:1030700015F038FD044600F057FEBFF35F8F164B86
:10308000356001229C423A7208D016D9134B9C42FB
:103090000ED003F5B85318339C4213D148F2425076
:1030A00005B0BDE8F08348F2045005B0BDE8F083F8
:1030B00048F2025005B0BDE8F0831CB9204605B0C7
:1030C000BDE8F08348F2165005B0BDE8F08300BFBC
:1030D00020130120513D00008408F000080CF0008E
:1030E0002DE9F84346681B4C0746B068894615F041
:1030F000CBFE012180462046FEF7FAF9BFF35F8F31
:10310000D0B9054607F1080372794946404614F0E4
:103110001FFCBFF35F8F104B2560984208D013D976
:103120000E4B98420CD003F5B853183398420DD18A
:1031300048F24250BDE8F88348F20450BDE8F883F5
:1031400048F20250BDE8F8830028F7D048F2165044
:10315000BDE8F883201301208408F000080CF0007B
:1031600010B5446882B002AA637942F8043D083081
:1031700014F05EFC6279019B9A4210D10C4B98428C
:1031800008D00BD90B4B98420DD003F5B853183328
:10319000984204D148F2425002B010BD08B148F242
:1031A000165002B010BD48F2025002B010BD00BF70
:1031B0008408F000080CF0002DE9F043047A46681A
:1031C000A5B005460F46002C40D0DFF8AC800121A9
:1031D0004046FEF78DF98146BFF35F8F60BBB27941
:1031E00024AB013243F88C2D05F10C0002AA042116
:1031F00015F0ACFA0446BFF35F8FB279019BC8F8B3
:103200000090511C99421CD19DF80830042B18D114
:1032100038460DF1090119F03EFC154B9C4208D0CF
:103220001ED9144B9C421FD003F5B85318339C424F
:1032300007D148F2425001E048F2045025B0BDE801
:10324000F08348F2165025B0BDE8F08300F10C0180
:10325000B279384619F01FFC204625B0BDE8F0834E
:10326000002CEED12046E9E748F20250E6E700BF25
:103270008408F000080CF000201301202DE9F04133
:10328000244D86B02023044688462846012117464F
:10329000CDE90433FEF72CF9BFF35F8F28BB064658
:1032A00000F02EFD1C4B0294009408F108020193DB
:1032B00004A905AB07F1080015F002FD044600F073
:1032C00033FDBFF35F8F154B2E609C4208D016D99B
:1032D000134B9C420ED003F5B85318339C4213D1C4
:1032E00048F2425006B0BDE8F08148F2045006B002
:1032F000BDE8F08148F2025006B0BDE8F0811CB98B
:10330000204606B0BDE8F08148F2165006B0BDE890
:10331000F08100BF20130120513D00008408F0001F
:10332000080CF00008B52022083019F0B4FB00208A
:1033300008BD00BF08B50B46202200F10801184661
:1033400019F0A9FB002008BD2DE9F041244D86B0FD
:103350000F4620214023049104460121284690462F
:103360000593FEF7C5F8BFF35F8F28BB064600F054
:10337000C7FC1C4B0294009408F10802019305A9B4
:1033800004AB07F1080015F02DFD044600F0CCFC5D
:10339000BFF35F8F144B2E609C4208D016D9134B9D
:1033A0009C420ED003F5B85318339C4213D148F217
:1033B000425006B0BDE8F08148F2045006B0BDE8C6
:1033C000F08148F2025006B0BDE8F0811CB92046F9
:1033D00006B0BDE8F08148F2165006B0BDE8F081B5
:1033E00020130120513D00008408F000080CF0007B
:1033F0002DE9F043274D8FB040238146884628466B
:1034000020240121CDE90434FEF772F8BFF35F8F69
:1034100068BB06464FF40C7002F062F8074658B3DA
:1034200000F06EFC0DF1140C06AB2146CDE9003C1A
:1034300009F1080204AB0297404615F09FFC0446D0
:1034400000F072FCBFF35F8F38462E6002F094F8F4
:10345000114B9C4208D014D9104B9C4217D003F555
:10346000B85318339C420FD148F2425001E048F261
:1034700004500FB0BDE8F08348F215500FB0BDE81E
:10348000F0830CB92046F4E748F21650F1E748F211
:103490000250EEE7201301208408F000080CF00031
:1034A00008B50B46202200F10801184619F0F3FA7E
:1034B000002008BD08B50B46202200F1080118467F
:1034C00019F0E9FA002008BD2DE9F04FA3F114042A
:1034D00089B02C2C68D8DFE804F05367676767670A
:1034E0006767586767675D67676767676767676785
:1034F0006767676767676267676767676767676761
:103500006767676767671700D1F804804FF009099C
:10351000DFF8A8A00E4605461C46504698F806302F
:10352000079301211746FDF7E3FF8346BFF35F8F43
:1035300000283CD100F0E4FB129B1F4907AACDE90B
:103540000243049206F108032A46CDE90097284673
:1035500015F078F9044600F0E7FBBFF35F8F2046D3
:10356000CAF800B0FFF748FD38B998F80610079A76
:1035700048F21653914218BF184609B0BDE8F08FC3
:10358000D1F804804FF00509C2E7D1F804804FF06C
:103590000609BDE7D1F804804FF00709B8E7D1F874
:1035A00004804FF00809B3E748F21150E5E748F20C
:1035B000045009B0BDE8F08F513D000020130120F8
:1035C0002DE9F0411E4D04460F4628460121904644
:1035D000FDF78EFFBFF35F8FC0B9064600F090FB8A
:1035E000394604F1080013F0B5F9044600F09CFBDD
:1035F000BFF35F8F134B2E609C4211D00AD89CB151
:10360000013B9C4218D148F2015001E048F20450BD
:10361000BDE8F0810C4B9C420BD00D339C420BD18A
:1036200048F20350BDE8F08120232046C8F800305E
:10363000EEE748F20250EBE748F21650E8E700BF29
:10364000201301200102F0000202F00001F06043AB
:10365000B3F1005F02D048F2125070472DE9F041FB
:103660000D4682B00746012121481446FDF740FF70
:10367000BFF35F8F38BB00F043FB08374FF6FF788E
:1036800000E064B14445264628BF464629463246F6
:10369000384613F0F1F8A41B35440028F1D001900E
:1036A00000F042FBBFF35F8F124B0198104A0021DC
:1036B0009842116015D00BD838B1013B98420DD11A
:1036C00048F2015001E048F2045002B0BDE8F08138
:1036D000094B984208D00D33984202D048F2165058
:1036E000F3E748F20350F0E748F20250EDE700BF7D
:1036F000201301200102F0000202F00008B508309A
:10370000022113F055F80D4B984206D008D90C4B06
:10371000984210D00D3398420AD148F2035008BDA8
:103720000028FCD0013B984202D148F2015008BD6C
:1037300048F2165008BD48F2025008BD0102F000E0
:103740000202F00010B5002182B00846FEF736FFF5
:1037500048B9064C01900123C4F8003515F00AFC65
:103760000198C4F8000502B010BD00BF00A00250CF
:1037700038B50A4B00251D60BFF35F8F084C01234D
:10378000C4F8003515F0CAFBC4F8005520B901464D
:10379000BDE83840FEF712BF032038BD20130120DA
:1037A00000A0025038B54B4B02689A422BD00D4610
:1037B000044601214848FDF79BFEBFF35F8FF0B937
:1037C00000F09EFA2946201D13F0FAFA434B984266
:1037D0001CD8023B98426FD20B3B984228D9404BF1
:1037E000984266D040D8023B98423AD00133984282
:1037F00008BF48F2715425D048F2165422E048F22E
:103800000454204638BD0024204638BD354B98422C
:103810004CD032D8033B984242D01CD9324B98420C
:1038200041D00133984208BF48F217540AD0E3E769
:10383000013B984237D2043B984228D02AD804460C
:103840000028D9D100F070FABFF35F8F224B00221D
:103850001A60204638BD023B984221D0013398427D
:10386000CAD148F21454EDE7204B984202D00233FB
:103870009842C1D148F20354E4E71D4B9842F0D07E
:103880001DD80A3B984211D009339842B4D148F26E
:103890001354D7E7174B9842ECD002339842ABD180
:1038A00048F21054CEE748F21154CBE748F20154E5
:1038B000C8E748F20254C5E748F27054C2E70E4B1D
:1038C0009842F0D0A0F57000A0F634400128D1D97C
:1038D00092E700BF6169614D20130120120CF000D6
:1038E000080CF000250CF000230CF0000D0CF0008B
:1038F000310CF000010CF000320CF00070B50E46F7
:103900001546041D7BB301218E48FDF7F1FDBFF381
:103910005F8F002877D100F0F3F93246A9B2204634
:1039200013F034FB044600F0FFF9874B9C4251D85A
:10393000023B9C4280F0F0800B3B9C4240F2918025
:10394000824B9C4200F0E58000F2F080023B9C42FA
:1039500000F0AB8001339C4208BF48F271504CD05C
:1039600048F2165049E000F0CBF93246A9B22046A1
:1039700013F00CFB044600F0D7F9734B9C4213D8AC
:10398000023B9C4280F0BC800B3B9C423ED8013BFA
:103990009C4280F0A680043B9C4252D000F2A7805B
:1039A0002046002C40D170BD694B9C4200F08D80B8
:1039B0003DD8033B9C4200F0A08040F28980654BDB
:1039C0009C4200F08E8001339C4208BF48F21750A1
:1039D0002AD170BD5E4B9C4200F0988034D8033BE6
:1039E0009C424CD05AD95B4B9C4200F08C800133F6
:1039F0009C4208BF48F21750B2D1BFF35F8F514BC2
:103A000000221A6070BD48F2045070BD4F4B9C42BA
:103A10006AD000F28480023B9C425FD001339C421A
:103A200008BF48F27150BED048F2165070BD4A4BE4
:103A30009C4253D026D80A3B9C4246D009339C4234
:103A4000F2D148F2135070BD434B9C422DD02FD879
:103A50000A3B9C425AD009339C4281D148F2135010
:103A6000CBE7013B9C424ED2043B9C42F6D064D94A
:103A70003A4B9C4226D002339C427FF471AF48F20D
:103A80001050BAE7364B9C422BD0A4F57004A4F634
:103A90003444012CC8D848F2035070BD023B9C420C
:103AA000EDD001339C427FF45BAF48F21450A4E7A1
:103AB0002B4B9C4227D0A4F57000A0F6344001287F
:103AC0003FF64EAF48F2035097E748F2015070BD01
:103AD000023B9C4211D001339C42A5D148F21450C4
:103AE00070BD48F2115070BD48F2025070BD1B4BC2
:103AF0009C42D0D002339C4296D148F2105070BD07
:103B000048F2705070BD48F2115076E748F201500B
:103B100073E748F2025070E748F270506DE7114BBE
:103B20009C42B8D002339C42B5D07DE70D4B9C42FD
:103B3000C8D002339C42C5D012E7002C7FF410AFEE
:103B400020465AE720130120120CF000080CF00068
:103B5000250CF000230CF000310CF000010CF000FB
:103B6000320CF0000D0CF0000C2B39D813F0030FC1
:103B700033D1F0B50E4683B00546012157481746AC
:103B80001C46FDF7B5FCBFF35F8F60BB043500F04A
:103B9000B7F864B3A2B23946284613F02DFC504B57
:103BA00098423FD8023B984264D20B3B98422BD8B4
:103BB000013B98426ED2043B984268D051D8B0B1D4
:103BC00048F21650019000F0AFF8BFF35F8F434BFF
:103BD000019800221A6003B0F0BD48F216507047F9
:103BE00048F21150704748F2045003B0F0BD31461E
:103BF000284613F045FB3A4B984213D8023B9842B3
:103C000038D20B3B98421FD9364B984226D05DD80C
:103C1000023B98424AD00133984208BF48F27150A3
:103C2000D0D0CDE7304B984237D026D8033B9842CE
:103C30001DD035D92D4B98422CD00133984208BF66
:103C400048F21750BED0BBE7013B984222D2043B5A
:103C500098421CD005D80028B4D0B1E748F20250F1
:103C6000B0E7234B98422ED002339842A8D148F2B5
:103C70001050A7E748F27050A4E71E4B984215D0A9
:103C800017D80A3B984208D00933984298D148F295
:103C9000135097E748F2115094E748F2015091E72A
:103CA000023B9842E3D00133984289D148F2145044
:103CB00088E7114B9842EDD0A0F57000A0F6344093
:103CC00001283FF67DAF48F203507BE70B4B98424B
:103CD000F9D002339842F6D072E700BF20130120DA
:103CE000120CF000080CF000250CF000230CF00082
:103CF000010CF000310CF000320CF0000D0CF00063
:103D0000064A13680133012B136006D10449054AA2
:103D1000C1F800354FF4806353607047801A00206B
:103D200000A0025000E100E0064A1368013B136066
:103D30003BB90549054AC1F800354FF48063C2F824
:103D400084307047801A002000A0025000E100E09B
:103D500008B51046FEF7EAFB38B1044A044B48F2B6
:103D6000025188420CBF1046184608BD080CF000EE
:103D70000F0CF00008B508461146FEF78FFB034B09
:103D8000002814BF1846002008BD00BF00B3FFFF85
:103D900038B50D46044608F0C5FB297A20460AF0DE
:103DA00093FFB0FA80F0400938BD00BF70B5A2B0F3
:103DB000556803A80E46144608F0B4FB297A03A8F8
:103DC0000AF082FFB8B9083405460836204608F0E4
:103DD00099FB304605F010F90095224631460C4B10
:103DE00003A809F07DFE054603A808F0B1FB35B92C
:103DF000284622B070BD48F2165022B070BD304641
:103E000005F002F9204608F093FB48F21650F0E75F
:103E1000753D000070B51C4B45689D42A8B0044636
:103E20002CD00E4609A808F07DFB09A8297A0AF0D3
:103E30004BFF98B90834204605F0DEF86A79314620
:103E4000204605F0D7FC68B109A808F081FB2046A0
:103E500005F0DAF848F2165028B070BD48F2165056
:103E600028B070BD214609A809F080FD054600284C
:103E7000EAD109A808F06CFB2846EDE701A820224A
:103E8000FEF7E4FB01AECDE734E0010070B5034678
:103E900008305C6862790E4605F048FD094B9C428B
:103EA000054605D0002D48F2165008BF002070BD11
:103EB00030462021FEF7BEFB002D48F2165008BF09
:103EC000002070BD34E0010070B5054608306C6814
:103ED00062790E4605F02AFDB8B96279A37993425A
:103EE00004D80E4B9C4213D0002070BD05F1140085
:103EF000B11805F01BFD094B9C42054603D1304625
:103F00002021FEF797FB002DEED048F2165070BD31
:103F100030462021FEF78EFBE6E700BF34E00100CB
:103F200008B5083005F070F8002008BD08B5083065
:103F300008F0FEFA002008BDF0B54D68ABB00C46A5
:103F40000BA8294616461F46FFF722FFF0B105A829
:103F500005F052F808A805F04FF81A484FF0000C89
:103F600004F10803CDE9020CCDE9006708AA05A910
:103F70000BA807F0D3FD04460BA808F0E9FA4CB1F2
:103F800005A805F041F808A805F03EF848F21650DB
:103F90002BB0F0BD6A79309905A805F0C7FC002860
:103FA000EED16A79309B08A8991805F0BFFC044649
:103FB00005A805F029F808A805F026F8002CE5D199
:103FC0002046E5E7753D00000020704708B503492D
:103FD00003480BF093F8002008BD00BFE53F000048
:103FE000E93F000001F0C8BA38B501FB00F42046F3
:103FF00001F076FA054618B12246002118F06FFD4F
:10400000284638BDF0B443681BB1384AD468A3428F
:1040100046D20023364F0B807A684FF0010C02F530
:1040200080544FF6FF76083294420ED8BCF1020F4E
:10403000A1F800C007F1140754D07A6802F5805443
:10404000083294424FF0020CF0D913680133EDD0DE
:104050005388033302EB83039C42E7D39588B54230
:104060000AD0158845B1956803689D4211D05388E0
:10407000033302EB8302D7E79C42D7D91A68013297
:104080001A46D3D05D88033503EB85039C42E5D205
:10409000CCE7184B42601B8903810120F0BC7047BC
:1040A00012699342B5D813F00305B2D1114A0489BD
:1040B00012899442ADD104689A689442A9D10C48FF
:1040C0004268934203D902F58052934207D3826932
:1040D000934207D902F58052934203D201250D8005
:1040E0000120DBE70020F0BC704700BFC0000020CB
:1040F000C41A0020A81A0020F0B5334C334DB4F890
:1041000002C062684FEA8C0606EB0C0305EB8303E2
:1041100083B0596801F58050002A52D05388033388
:1041200002EB8302904213D8664405EB8605EB68E8
:10413000002B3DD0264B2748196802229A8005257E
:1041400000230122257003B0BDE8F04001F010B952
:1041500013680133E8D05388033302EB83038342AF
:10416000E2D84FF6FF7E9788774514D0178897B12D
:1041700062605388164D1748AE88296803330025BE
:104180009BB200959B0001EB86010325257001F091
:10419000BBF803B0F0BD9842C6D91A6801321A467E
:1041A000C2D05F88033703EB87039842DBD2BBE7BB
:1041B000084804250122257003B0BDE8F04001F055
:1041C000D7B801F10802ADE7A81A0020C41A0020F0
:1041D0008C1B0020C00000202DE9F04FAC4E89B0B0
:1041E00004464FF6FF773568002D00F0D9802A7815
:1041F000531E052B67D8DFE803F05931311D1D032D
:10420000002C40F0C380DFF8B0C29CF80C209CF872
:104210000030002A00F05281013B8CF80C40062B44
:1042200051D8DFE813F0E703F8020302D801500089
:10423000FB02C802002C40F0A9802B79012B00F072
:104240004A81C0F0DE800DF10C08022B0394C8E90E
:104250000244C8F810403ED120463DE0B5F8149025
:10426000AB7D002C00F0A380022BEA8840F2C480D2
:104270004FEA8904DFF8388204EB090108EB810179
:10428000D31C0A8913440B81EA884C4408EB84044C
:104290000DF10C086389033B9B1A00226381C8F867
:1042A00008200392C8E90322012015E0002C40F009
:1042B00097802B79032B00F2DF80DFE813F0800179
:1042C0003D015501600100230DF10C08C8E90333DD
:1042D000C8F8083003930F2004902B78023B042B7E
:1042E0000AD8DFE803F0472F2303430004238DF8A7
:1042F0000C30EB88ADF81830664C04F1100554F81A
:10430000043B404603B19847A542F8D1624963484F
:1043100000243460FDF7E6F901216148FDF722F938
:1043200000287FF460AF09B0BDE8F08F03238DF85B
:104330000C30EB88ADF818302B89ADF81A30EB68EB
:104340000593D9E702238DF80C302B89ADF818308E
:10435000AB88ADF81A30EB680593AB7DA3F106038B
:10436000B3FA83F35B098DF81C30C5E705238DF89C
:104370000C30C1E701238DF80C302B89ADF81830D3
:10438000AB88ADF81A30EB680593B5E70DF10C0872
:104390000023C8F808300393C8E9033301209BE7E2
:1043A0003D493E48FDF770F9054630601FE74FEA8A
:1043B0008904DFF8FC8004EB090108EB8101B1F806
:1043C00008A0496801EB8A0A062B00F2B682DFE8F2
:1043D00013F0CC019301A501B80141016C018601E4
:1043E0000DF10C082F4A002353600393C8E90233F0
:1043F000C8F8103001206FE7DFF8B4804FEA890475
:1044000043E702232B71CDE904440DF10C08EB685E
:10441000039340460DF10A01FFF7F4FD002800F078
:10442000C1810499204A8B88EB800B882B811F481F
:1044300000940423BDF80A4000F066FF002840F015
:10444000DE821B4B04EB840403EB840401232374FE
:1044500069E701239A001A4408EB82030020596897
:104460000090082308F82200124A104800F04CFF80
:1044700000283FF458AF35680A4A0DF10C080023B4
:1044800053600393C8E90233C8F810300E2023E7C5
:10449000C01A0020901A0020B81A0020781B0020B3
:1044A000881B0020A01A002064E00100C00000204A
:1044B000C41A002068E00100A81A0020072B00F2AF
:1044C0008382DFE813F0FA01810281029D01E60197
:1044D00078017801C001BF4B1B78002B00F053819D
:1044E000DFF8F4E2BEF80490B9F1010F15D8DFF857
:1044F0000C8309EB890208EB8202043212F8043CB7
:10450000002B00F0088209F1010399B201299946B4
:10451000AEF8043002F11402F0D90DF10C080822B3
:104520000021AD4818F0DBFA0020C8F8080003901D
:10453000C8E903003568CFE6DFF8C08298F800309C
:10454000022B00F0688298F81430022B81D0A14B26
:104550000DF10C08002001221A7003905860C8E980
:104560000200C8F81000B7E69C4A9D481168002375
:1045700002242B719480012200F0FAFE78E7974C18
:10458000984A21689648DFF874824FF0000985F850
:1045900004900823CDF8009000F0B6FE924B2568F9
:1045A0005B88A18803EB830308EB830208F8239060
:1045B00053682360022355601181A38058E7874B1D
:1045C0008A4A1968864801232B7100230093082327
:1045D00000F09AFE4CE7BCF80230DFF8208203EBD3
:1045E000830308EB8308D8F80C30002B00F0DC8143
:1045F0007A4B7B48196802229A8005228CF80020A9
:104600000023012200F0B4FE00283FF48CAE0DF12F
:104610000C08002341F61D523568C8F80830039392
:10462000C8E90333904208BF184655E6DCF8042079
:104630006A48538884880168694801EB8401033320
:10464000002400949BB203249B008CF8004000F0EF
:104650005BFED9E7664BAA6966491A604FF0000B0A
:104660001846C3F804B0FFF7CDFC002800F0CA815B
:104670000223AB7504235146CDF800B0EA18584820
:1046800000F042FE00283FF44EAEAB7DEA88022BDC
:104690004FF00E0026D84C4408EB8408B8F80A30D6
:1046A000033B9B1AA8F80A30B1E7524B504AB3F8C3
:1046B00000A051684A48504A00234FF0060C85F884
:1046C00016C00093042300F01FFE0028DDD10AEB82
:1046D0008A0A08EB8A08012388F8103023E6EA8862
:1046E00041F61D5004EB090108EB8101D31C0A8936
:1046F00013440B81EA88CEE7032A0CBF0523062367
:104700000022AB750AF104010092042305F10802AE
:10471000334800F0F9FD0028B7D104E62B69304892
:10472000002B14BF032301230022AB750AF10801FB
:104730000092042305F10C0200F0E6FD0028A4D14C
:10474000F1E5EB882A6926484FF0010C85F816C080
:104750004FF0000C0AF10C019B00CDF800C000F0F6
:10476000D3FD00283FF4DFAD8FE702230022AB75B5
:10477000042300925146EA18194800F0C5FD0028AC
:104780003FF4D1AD81E70DF10C0808222146124813
:1047900018F0A5F90394C8E90244C8F81040356838
:1047A000022099E50A200023C8E90033C8E9023352
:1047B000C8F8103090E5094B0C4A196808480023E6
:1047C0000093CCF8043007238CF80030082300F065
:1047D0009BFD19E7A01A00209C1B00208C1B0020C9
:1047E000C000002068E00100A81A002070E001006D
:1047F000841A0020981B002064E00100C41A0020E5
:10480000884ADCF804109388498803330B4402215A
:1048100093808CF80010FFF76FFCF5E6BCF80220DF
:10482000DFF810829300134408EB8308062000236E
:10483000D8F804107C4A00938CF8000008237B48C9
:1048400000F062FDE0E601238CF800309CF80A30AD
:104850004BB1DFF8E081D8F80C3000228CF80A2048
:10486000002B00F0AB809CF80B30002B43D0DFF81E
:10487000C481D8F8203000228CF80B20002B3AD1CC
:1048800098F82430BBB30123ACF80230FFF734FCB6
:10489000BAE6BCF80220DFF89C81624C93009918BC
:1048A00008EB810120684D68B4F804E048600220FC
:1048B0002560A1F808E0A080B5E7DFF87881BCF8B2
:1048C000081098F8142098F80030B2FA82F25209D1
:1048D0000131B3FA83F35B098CF80B20ACF80810B4
:1048E000002201218CF80A30ACF802208CF80C2050
:1048F0008CF80010ACE70DF10C080020C8F8080097
:104900008CF80000ACF80200CCF804000390C8E971
:1049100003003568E0E41368DEF8001003F5805CFE
:1049200003F1080A002968D04B88033301EB8301A7
:104930008C4505D8CEF80040E5E5EA880F20D1E6A1
:104940000B680133F6D04B88033301EB83039C459E
:10495000F0D38888B8421AD0B1F800B0BBF1000F8C
:1049600015D0EB88CEF800108342DBD100230093F2
:104970002F4A2E48042300F0C7FC00284DD109EB34
:10498000890908EB8908012388F81030CBE49C459D
:10499000D0D9196801311946CCD05888033003EBBF
:1049A00080039C45D5D2C5E704228CF80020D8F8B6
:1049B00004101E48012200F0DBFC25E698F81020C8
:1049C000002A3FF450AF5FE7013B062B3FF67BAC7C
:1049D00001A252F823F000BFF5490000174800007B
:1049E0002D460000D7450000C74200001D480000CA
:1049F000B74700009CF80A302AE7514698E7356827
:104A00000E20D0E60DF10C080390C8E90200C8F8AA
:104A100010000A2060E400231CE535680E200DF12B
:104A20000C08C0E68C1B002068E00100C0000020DC
:104A300064E00100C41A00204068FFF7CDBB00BF4E
:104A400038B5084B1A68042A0AD01D68064C02467D
:104A50000121184644F82520FCF778FD002038BDD8
:104A60000C2038BD941B0020901A00202DE9F04F37
:104A7000AB4C8BB022780023CDE90533CDE9073369
:104A8000099372B1A74C04F1100554F8043B05A832
:104A900003B19847A542F8D1002528460BB0BDE8E0
:104AA000F08F201D02F0FF06FCF776FD0746002878
:104AB000F2D140F6F8731B685D1C00F0FA804FF0ED
:104AC000805211695269DFF884829749C8F8103022
:104AD0004046A3F540530022C8F80C3000F00CFC0F
:104AE00005460028D9D11C238C2290499048DFF834
:104AF00060A2FCF775FDD8F80C90DFF8588202969A
:104B000009F5405348464FF0030B2A4699460028C2
:104B100000F09D80036887498B4240F0988043688D
:104B200085498B4200F0188101318B4240F08F8023
:104B3000029B63B102EB820C08EB8C01022601326E
:104B4000DAF8003008F82C6092B24B600E81816870
:104B5000CAF800004FF0020C0131AAF804C000F5B9
:104B6000805300F108062DD04189033106EB810006
:104B70008342C0F0B58060464FF6FF7E0192B6F8E2
:104B800004C0F4450FD0B6F800C0BCF1000F0AD045
:104B90006A4AD6F808C01268944504D9674AC2F830
:104BA00000C071880331084480B2AAF804007188FB
:104BB000033106EB8106B34200F286800228019A97
:104BC00040F0318104210F43994518469FD1BBF134
:104BD000010F40F28B80FFB2022F00F08780062F7A
:104BE00000F08E80002F00F0818004A95048FCF76F
:104BF0000FFD1C220446002117F071FF002C00F06D
:104C000010810123013F23700A2F09D8DFE807F044
:104C1000160816081C081C0819061900022323711F
:104C200004A94348FCF720FD01214548FCF782FC1C
:104C300000287FF431AFFFF7CFFA2EE7002323716E
:104C4000EEE703232371EBE701232371E8E700F587
:104C50008053014601E08B4214D00E68013601F109
:104C60000401F8D002EB820108EB81060BF1FF3B57
:104C700001324FF0030C1FFA8BFB92B208F821C0EF
:104C80007060A1E7DAF8001091B32E4E02EB8201BA
:104C900008EB810C7280022602F1010E08F82160F7
:104CA0001FFA8EF2CCF80400ACF8086047F0010758
:104CB0008AE7254B4FF080521B6811695269581CD6
:104CC00008BF02FB01F3FEE6316801313FF476AF25
:104CD0007188033106EB810C6345BFF450AF019A34
:104CE0004FF48061AAF8041008216CE70B25D4E684
:104CF0000221AAF804100121CAF800000291D5E7A8
:104D0000084D01220023227005F11006636055F85A
:104D1000043B05A803B19847AE42F8D1BCE600BFFA
:104D2000A01A0020901A002084E00100EC1A002054
:104D3000781B0020DEC0ADDEFE011EF1BC1A002093
:104D4000881B0020A81A002014100010C0000020AA
:104D50008C1B0020C41A002093000393134408EB1B
:104D6000830C002108F823104FF00203ACF8083040
:104D7000CCF804008668013600F5805300F1080184
:104D800040D0408900F1030E01EB8E0E73452FD306
:104D900002260192E646B1F804C04FF6FF72944530
:104DA00037D0B1F800C0BCF1000F32D01F4AD1F8A3
:104DB00008C01268944505D91C4ABEF80860C2F8BC
:104DC00000C0488806440336B6B2AEF8086048888A
:104DD000033001EB80018B4219D90868013016D0ED
:104DE000488800F1030C01EB8C0C6345D3D2019A87
:104DF0000399114408EB81014FF480604FF00106E4
:104E00000E740881013292B247F00207DCE6019A83
:104E1000F8E74FF001028EF810204888BEF80860CD
:104E2000D0E7082539E60821CDE600BFBC1A0020EE
:104E3000002837D0002935D02DE9F04182B00C464A
:104E400001A90646FFF7DEF840B375680022062187
:104E50002846B5F806806F88FCF7EEFF02AA791C99
:104E600022F8020D890005F10800FCF7E5FF8045F6
:104E70001AD1BDF804000E4B00EB800003EB80005C
:104E800001210C30FCF762FB2560736801220C33B2
:104E900000206360B27202B0BDE8F0810A2002B067
:104EA000BDE8F081052070470D2002B0BDE8F0811B
:104EB000C41A0020E8B110B582B00DF10601044615
:104EC000FFF7A0F890B1BDF806300C4A03EB83035E
:104ED00002EB8303DA6872B1A27A62B1DA68002168
:104EE000013A0846DA60A17202B010BD0A2002B091
:104EF00010BD05207047062002B010BDC41A002066
:104F00002DE9F043594B83B01B780022ADF8022005
:104F1000002B31D0002935D00A884FF6FF739A4212
:104F200026D04B8823B34B689B072FD1B1F808805C
:104F300008F103039BB240F2FD32934220D84C4A61
:104F400017783FB9558914892C441C44A4B2B4F590
:104F5000806F1FD3147D3CB9D58B948B2C441C449B
:104F6000A4B2B4F5806F7ED3072003B0BDE8F08310
:104F7000042003B0BDE8F083022003B0BDE8F08355
:104F80000920F6E7052003B0BDE8F083032003B055
:104F9000BDE8F083BC464FEA8C09E14402EB890985
:104FA0002B440C46064601A93248A9F80A30FCF702
:104FB0002FFB1C220546002117F091FD002D43D048
:104FC00002234FF00009AF822B7085F816906368BA
:104FD0002B6101212848FCF7B9FAE86023882B816E
:104FE0006388AB804A460621A5F80680281DFCF799
:104FF00023FF02AF042127F8060D05F10C003A4605
:10500000FCF71AFFA168ADF8020089003A46606813
:10501000FCF712FF01A9034668811648ADF802307B
:10502000FCF722FB46B1C6F80490EA68134B3260E5
:105030001B8986F80A90338101211148FCF77AFA1E
:10504000044660B1002094E7B9F80A30C8F57F48FB
:1050500008F1FD089844A9F80A80082089E7FFF7BD
:10506000BBF8204685E70127BC4694E7A01A00203C
:10507000C41A0020781B0020BC1A0020A81A0020A7
:10508000881B002000283BD02DE9F0475B4B82B005
:105090001B780022ADF8022073B3002938D00A88AB
:1050A0004FF6FF739A422FD04B886BB34B689B0728
:1050B00028D1B1F8088008F103039BB240F2FD3219
:1050C000934227D84E4A17783FB9568914893444F9
:1050D0001C44A4B2B4F5806F1ED3147D44B9D68BA2
:1050E000948B34441C44A4B2B4F5806FC0F0838028
:1050F000072002B0BDE8F087022002B0BDE8F087CB
:10510000052070470320F8E7042002B0BDE8F087CF
:105110000520F2E70920F0E7BC464FEA8C0464441E
:1051200002EB84043344054689463648638101A96D
:10513000FCF76EFA1C220646002117F0D0FC002E68
:105140004BD000240323B7823370B475D9F80430F0
:10515000336101212C48FCF7F9F9F060B9F800300F
:105160003381B9F80230B3804FF0040AA6F8068004
:1051700086F816A02B68B3612246062106EB0A00CA
:10518000FCF75AFE02AF514627F8060D06F10C0057
:105190003A46FCF751FED9F80810ADF802003A463D
:1051A0008900D9F80400FCF747FE0DEB0A0103461D
:1051B00070811448ADF80230FCF756FA6C60F26862
:1051C000124B2A601B89AC722B8101211048FCF71D
:1051D000B1F9054658B120468FE76389C8F57F4885
:1051E00008F1FD089844A4F80A80082085E7FEF736
:1051F000F3FF284681E70127BC468EE7A01A00206E
:10520000C41A0020781B0020BC1A0020A81A002015
:10521000881B00202DE9F043344C2478002C60D00A
:105220003AB333B39F88012F5ED8314C07EB870C1C
:10523000013704EB8C0CBFB24FF6FF7E4FF0000835
:105240009CF8004074B91C68DCF8045005F58056E1
:10525000002C43D06588033504EB8504B4420BD39E
:10526000C3F80080022F9F800CF1140C3CD0022761
:10527000E6E70520BDE8F08325680135F0D06588B4
:10528000033504EB8505AE42EAD3B4F80490F1454A
:1052900015D0B4F80090B9F1000F10D01C60A588AB
:1052A0008542D1D125888D42CED1A168116019687F
:1052B000104B51601B8913810020BDE8F083AE4282
:1052C000CED92C6801342C46CAD0B5F8029009F129
:1052D000030905EB8905AE42D7D2C1E705F1080401
:1052E000BCE70220BDE8F0830A20C3E7A01A002033
:1052F000C41A0020A81A002020B119B101600B685F
:10530000114618470E20704750B32DE9F0414AB3BB
:10531000D0F800E0BEF1000F27D01D4673B14768FA
:10532000D7F80480B3FBF8F708FB173737B942EA20
:105330000104A40705D01020BDE8F0810920BDE8D4
:10534000F081C468A142F6D301F1FF3C04696544D1
:10535000A542F0D8DEF80C40A446BDE8F041604715
:105360000E2070470E20BDE8F0810820BDE8F081D6
:1053700000B3F0B5D0F800C0BCF1000F1CD0AAB14A
:105380004768D7F800E00EF1FF370F4210D1C76829
:10539000B9420DD34D1E04690EFB0255A54207D834
:1053A000DCF81040A446BDE8F04060470920F0BD9D
:1053B0001020F0BD0E2070470820F0BD014B436067
:1053C0000020704778E001000846704700207047D1
:1053D000024B1868003018BF01207047A41B002042
:1053E00008B50248FCF7F0F8002008BDA41B002017
:1053F00008B510461A4617F04EFB002008BD00BF46
:105400002DE9F043804687B016480F461646994668
:10541000FCF7C2F8F8B94EB104463D4628460134BF
:105420000CF014FDA64205F58055F7D10D48FCF7A8
:10543000CBF8D8F8083093B10024022268460297CE
:10544000CDE904698DF80020019403949847204623
:1054500007B0BDE8F083112007B0BDE8F08318461F
:10546000F6E700BFA41B00202DE9F041804686B07E
:1054700013480F4616461D46FCF78EF8D0B9AA0809
:105480003146044638460CF0F9FC0D48FCF79CF810
:10549000D8F8083093B101220C9905916846CDE9FE
:1054A0000147CDE903658DF800209847204606B0F6
:1054B000BDE8F081112006B0BDE8F0811846F6E79E
:1054C000A41B0020044A05491368012043F0FF0390
:1054D0000870136000207047A81B00208C0A012070
:1054E000224B1B780BB900207047013841F6DB5383
:1054F0009842F8D81E480268D30712D4C2F340017C
:10550000E9B951071ED4130720D4D10622D493063B
:1055100024D4510626D41306E5D54DF204130721F1
:1055200001E00023194610B4012404FA01F122EA33
:105530000102104C026018195DF8044B704741F6E7
:10554000DC53F0E743F6B8330221ECE745F6941359
:105550000321E8E747F270730421E4E749F24C5372
:105560000521E0E74BF228330621DCE78C0A012015
:10557000A81B0020AC1B0020194B1B78D3B1C8B16D
:10558000184B98421FD0184B98421ED0174B984288
:105590001DD0174B98421CD0164B98421BD0164B6F
:1055A00098421AD0154B984205D0154B984208BF27
:1055B000072001D070470620124901220B68824063
:1055C00013430B6070470020F6E70120F4E7022048
:1055D000F2E70320F0E70420EEE70520ECE700BF48
:1055E0008C0A0120AC1B0020883900206457002061
:1055F000407500201C930020F8B00020D4CE00207D
:10560000B0EC0020A81B0020F8B5044600200E4690
:1056100003F0CEF92368A56818685A68AA4234BF17
:1056200001320022904213D05F685A6895420CD82C
:1056300000225A60E2686068531E072B44D8DFE8F6
:1056400003F0403C432F4343431901325A60F1E7D2
:10565000217C00293ED15F685A68954240D90132C9
:105660005A602268A16813688B4234BF013300235B
:105670001360DFE7D6E9002300EBC700C0E9002391
:10568000226813685068834212D8C31A91689942FD
:1056900038BF93600024002003F092F92046F8BD43
:1056A000336840F827302268136850688342ECD989
:1056B000A16801310144CB1AE8E7338820F817309C
:1056C000DEE73378C355DBE7314607FB020017F00E
:1056D000E2F9D5E70424002003F072F92046F8BD72
:1056E0005960BEE770B5044600200E46154603F02B
:1056F0005FF9236819685A68914243D018682DB938
:105700001A68A1688A4238BF551C1D60E26861684A
:10571000531E072B2BD8DFE803F010182A212A2A62
:105720002A0401EBC001D1E900230024C6E90023CB
:10573000002003F045F9204670BD0B5C3370002457
:10574000002003F03DF9204670BD31F81030338061
:105750000024002003F034F9204670BD51F82030B9
:1057600033600024002003F02BF9204670BD00FBBD
:105770000211304617F08FF90024002003F020F9C1
:10578000204670BD0524002003F01AF9204670BDA4
:10579000036818685B68C01AB0FA80F04009704767
:1057A000F8B5204A204B0024C2F84041C2F84441D9
:1057B000C2F84841C2F84C41C2F80041C2F8044165
:1057C0001B6833B31949D2F804550A68AD1A1A6830
:1057D00025F07F45AA4227460DD8197CDE69AD1A0F
:1057E000144419B11F74D3E9052090471EB1334604
:1057F0001A68AA42F1D90E490E4A0B7812789A42D9
:1058000008D00D490D4A41F823404FF48013C2F8E7
:105810000031F8BD531CDBB2022B08BF00230B7014
:10582000EFE700BF00100140B00B0120AC0B0120DE
:10583000A90B0120A80B0120A00B012000E100E032
:105840002DE9F04F8C4A8D4913780978DFF85082A2
:10585000994285B0D8F800A000F07B810133DBB21B
:10586000022B08BF002386481370864A076852F847
:1058700023107B1823F07F43002403605346264601
:105880002046A446ABB11A688A4200F26581DC6802
:10589000C3F800C0891A1044DA6934B13D1825F004
:1058A0007F45C3E90154DE611E4613460124002BE7
:1058B000E9D1002C40F07C8101230093724B734F9F
:1058C000DFF8E09143F00103019355464FF0000BE0
:1058D00046B3D6E901C13446F669694B6C481A688B
:1058E000ACEB020323F07F43834248D80B44236090
:1058F00000220121C4E90122E2612174002D5DD062
:105900002A689A424DD2284603E00A689A424FD24A
:105910000846C1699B1A0029F7D12360E161C4617F
:10592000002ED6D178783978884264D00B4603EBC4
:1059300043034C1CBA7807EBC303E1B28A421A79DD
:10594000397004BF00213970022A9C6844D0032AB0
:1059500038D0012AE8D1227C002AE5D1D3F80CC046
:10596000C4F804C01969A1605869E06099F80000A2
:105970009B69A3610028B0D062609446ADE7A2EBBA
:105980000C0222F07F428A4202D28B1A2360AFE7D8
:1059900000230122C4E90033A360E36122746DB1E6
:1059A0002A68C8F80040D31A2B60E56125468FE7C6
:1059B000D21A0A602360E161C461B1E7C8F800400F
:1059C000254685E7002DAFD000232B74ED69002D0F
:1059D000FBD1C8F80050A5E74DB1AC422B4603D12E
:1059E000E4E094422FD01346DA69002AF9D100236B
:1059F000237488429AD1BBF1000F01D1554553D091
:105A0000002D56D1234E244A1F4C4FF480334FF4BF
:105A100000310127C2F880103C43C6F848334FF4E8
:105A20003C60C6F808337760A047154BB7604FF469
:105A30003C601D60A047194B1D70002389F80030A1
:105A400005B0BDE8F08FA34200F09180E0692168C5
:105A5000D861002800F086802A4603680B44036062
:105A6000AA424FF000033978787823741CBF15469A
:105A70004FF0010BBDE700BFA80B0120A90B0120CF
:105A8000AC0B0120A00B0120B0E00100900A012026
:105A9000FEFF7F000010014000E100E09D0B0120AF
:105AA000B00B01209C0B0120009B002BC5D0002DCA
:105AB000A8D0434B434A1C68D2F80465424FD5F83E
:105AC00000A03978331B23F07F43DD1CB9B93F496F
:105AD0003F4B4FF48030C2F844034FF00108C2F846
:105AE00004034FF40030C1F8800143F00103086063
:105AF000C2F800804FF43C60984787F80080AA45C0
:105B00002CBF04EB0A0363192E4923F07F43C1F82D
:105B10004035D1F80425921B9B1B22F07F4223F0D5
:105B20007F4303329A4288D9294BD1F80425C1F822
:105B3000402543F001034FF43C609847234B4FF45A
:105B40000032C3F80021002389F8003005B0BDE819
:105B5000F08F00260096B1E674BB521A1A6001233A
:105B60000093ABE6002339787878237441E719462F
:105B7000EA69C8F8002092B9CDE90231114BDFF88B
:105B800040C001209860019B89F80000CCF80020FB
:105B90004FF43C609847DDE90231D8F80020C8692D
:105BA0000968D86100287FF458AF59E72946DFE734
:105BB000C8F800309A467FE6C8F800309A46CCE72D
:105BC000AC0B0120001001409D0B012000E100E022
:105BD000B0E001002DE9F8431F4D204E204FDFF8C3
:105BE00098804FF480334FF400324FF001090024C5
:105BF000C6F8802047EA0907C5F848334FF43C60EF
:105C0000C5F80833C5F80490B847C5F808904FF4B4
:105C10003C60C8F80040B847124A134B13491C6057
:105C20001470134B134A0C700B2114701C80997064
:105C30004FF48012C023C6F8802186F814333260F6
:105C4000C5F8084586F81133D5F80435C8F8003092
:105C50002046BDE8F88300BF0010014000E100E0ED
:105C6000B0E001009D0B0120B00B0120A80B01202A
:105C7000900A0120A90B0120AC0B0120074B9B7857
:105C80004BB132B128B10368187C20B959745A61FC
:105C90007047072070470820704700BF900A012016
:105CA0002DE9F843224CA378002B35D0002833D0BF
:105CB000042934D943697BB3437C0646012B4FF05A
:105CC00000000CBF884680461746894602F070FEE9
:105CD0006378A17822785D1CEDB2A94208BF002547
:105CE000AA421FD003EB430304EBC3030121114A73
:105CF0009E601971D2F80425DA600020C3E9049887
:105D00009F61657002F05CFE0B4B4FF48012C3F88C
:105D100000210020BDE8F8830820BDE8F8830720B3
:105D2000BDE8F883002002F04BFE0420F2E700BF3C
:105D3000900A01200010014000E100E070B5174D0D
:105D4000AB7823B318B343690BB30024047406463D
:105D5000204602F02DFE6A78A8782978531CDBB221
:105D6000984208BF2346994213D002EB420205EB4A
:105D7000C20202219660204611716B7002F020FE73
:105D8000074B4FF48012C3F80021204670BD082055
:105D900070BD204602F014FE042070BD900A012060
:105DA00000E100E030B583B001A91248FBF730FCF8
:105DB000F0B1114D044628682060002002F0F8FD83
:105DC0000E4B0F481B88026801339B1AE3800021A9
:105DD000FBF78EFBA080002002F0F2FD01A9054830
:105DE000FBF742FC074B1B6813B101462846984756
:105DF00003B030BD600D0120D4E00100540C01203F
:105E0000800D0120B80B012030B50378052B83B03D
:105E1000054626D0002B31D12C4B1C683CB12368A1
:105E200068889B68984723685C68002CF7D1284CE9
:105E3000002002F0BDFD23687BB101212448FBF75F
:105E400085FB002002F0BCFD224B1B6813B12846E5
:105E500001219847236803B030BD1F4B6A881A8020
:105E6000EBE71E4BD3F88424D3F8803413F0FF0FF4
:105E700004D11B4BD2B2052A08BF1D4601A91948FF
:105E8000FBF7C6FB04460028E5D02B680360002022
:105E900002F08EFD104B0E481B88026801339B1ADE
:105EA000E3800021FBF724FBA080002002F088FDA6
:105EB00001A90C48FBF7D8FB064B1B68002BCAD086
:105EC00001462846984703B030BD00BF780D012039
:105ED000800D0120B80B0120540C012000700240FD
:105EE000D0E00100600D012030B5012883B030D032
:105EF00009D302282BD101A91A48FBF789FB0446D4
:105F000028B3194D06E001A91648FBF781FB0446AA
:105F1000E8B1164D28682060002002F049FD144BBE
:105F200014481B88026801339B1AE3800021FBF7A9
:105F3000DFFAA080002002F043FD01A90948FBF729
:105F400093FB0D4B1B6813B101462846984703B0DD
:105F500030BD01A90348FBF75BFB04460028F6D0DF
:105F6000064DD7E7600D0120CCE00100C4E0010040
:105F7000540C0120800D0120B80B0120C8E0010065
:105F80002DE9F04F87B006AF0026044689469246B9
:105F90009B4647F8106D00E00136626801235568A2
:105FA000214600223846A8470028F5D18DF8060082
:105FB000049066B3804605460AE09DF8063067689F
:105FC000023B7F68B8479DF806301D44AE421ED99B
:105FD00062680123576821460DF1060204A8B847FC
:105FE00062680123576821460DF1070204A8B847EB
:105FF0009DF807304B454FF00002214604A8DCD144
:10600000C24508D008F101085FFA88F8D5E70520F5
:1060100007B0BDE8F08F109A9DF8063013608BF83A
:1060200000308BF801906168023B4D680BF1020271
:106030002146A8470020EBE72DE9F041082382B074
:1060400005464FF4847239493948FBF7C9FA40B91B
:1060500038480AF0FBFB044640B1204602B0BDE8D8
:10606000F0810324204602B0BDE8F081324A334972
:10607000334B14700C604822214632481C6016F0E5
:106080002EFD21464822304816F029FD002D45D02E
:1060900095E807002D4B83E80700002009F0ECF895
:1060A00008B185283FD12A4D274F2B7A6E68DFF83B
:1060B00094C005F109044FF0030E1EFB034E744516
:1060C0001FD0F4B16378CBB1A278A21816D003F137
:1060D000FF38114652FA88F8013A01E001310DD03B
:1060E00012F8010F00F00F03DB0000064CBF634401
:1060F000DB1990451D6030685860EFD1033474455A
:10610000DFD102A90B2301F8043D114833689847F9
:1061100004460028A1D00AF02DFC9EE70B4BC3E9F2
:1061200000551D72B9E702F019FCBCE7580C0120BC
:10613000600D0120095E0000840D0120700D01201A
:10614000740D0120C40B01200C0C0120B80B0120A0
:10615000ECE0010010B50AF00FFD40B10AF014FDAB
:10616000044620B9054809F09BF810B910BD082075
:1061700010BD02F0F3FB204610BD00BFC0E00100DF
:106180000AF002BC0BF0D2BB4FF0804303E0D3F81F
:106190003824D1072BD5D3F838249207F7D530B55A
:1061A00083B001A91248FBF733FA0446E8B1114D58
:1061B00028682060002002F0FBFB0F4B0F481B8873
:1061C000026801339B1AE3800021FBF791F9A0805C
:1061D000002002F0F5FB01A90548FBF745FA084B42
:1061E0001B6813B101462846984703B030BD70477D
:1061F000600D0120D8E00100540C0120800D012029
:10620000B80B012010B582B0822301A912488DF885
:106210000030FBF7FDF9E8B104460098206000204B
:1062200002F0C6FB0D4B0E481B88026801339B1A17
:10623000E3800021FBF75CF9A080002002F0C0FBA6
:1062400001A90548FBF710FA064B1B6813B101467C
:106250006846984702B010BD600D0120540C012023
:10626000800D0120B80B012010B582B0832301A955
:1062700012488DF80030FBF7CBF9E8B104460098DE
:106280002060002002F094FB0D4B0E481B88026832
:1062900001339B1AE3800021FBF72AF9A08000203C
:1062A00002F08EFB01A90548FBF7DEF9064B1B68DF
:1062B00013B101466846984702B010BD600D012039
:1062C000540C0120800D0120B80B012030B50120B5
:1062D00083B001F08DFA044610B9204603B030BDFA
:1062E000842301A913488DF80030FBF791F9054686
:1062F0000028F2D000982860002002F059FB0E4BD5
:106300000E481B88026801339B1AEB800021FBF7C3
:10631000EFF8A880002002F053FB01A90548FBF725
:10632000A3F9074B1B68002BD7D001466846984756
:10633000D3E700BF600D0120540C0120800D012027
:10634000B80B01202DE9F04F037881B08246852BF0
:1063500000F2B980DFE813F03A028B01BA00ED01D8
:106360005602D800E000B700FB000E012101B70083
:10637000B700B700B7003401B700B700B700B700E7
:10638000B700B700B700B700B700B700B700B70055
:10639000B700B700B700B700B700B700B700B70045
:1063A000B700B700B700B700B700B700B700B70035
:1063B000B700B700B700B700B700B700B700B70025
:1063C000B700B700B700B700B700B700B700B70015
:1063D000B700B700B700B700B700B700B700B70005
:1063E000B700B700B700B700B700B700B700B700F5
:1063F000B700B700B700B700B700B700B700B700E5
:10640000B700B700B700B700B700B700B700B700D4
:10641000B700B700B700B700B700B700B700B700C4
:10642000B700B700B700B700B700B700B700B700B4
:10643000B700B700B700B700B700B700B700B700A4
:10644000B700B700B700B700B700B700B700B70094
:10645000B700B700B700B7004801860057011C021B
:10646000D001D8009C4BDFF888929C49D3E9000208
:106470009047D9F80040002C40F09A82DFF86CA2D7
:10648000DAF80430002B40F0A28200F07DFE944B3D
:106490001B68002B00F00B830120924D0AF038FBA3
:1064A0002A78931EDBB2062B0BD88F49CB5C13B135
:1064B00008F0CEFE2A78022A00F0F382082A00F0C3
:1064C000F08201232B7001B0BDE8F08F854D2A7852
:1064D000931EDBB2062B0BD88349CB5C13B108F0BB
:1064E000B7FE2A78022A01D0082A01D10AF08CFBD3
:1064F0007E4B5B6803222A700BB1022098477C4BCD
:106500001C68002C40F0AE81734BD3E90002514669
:1065100001B0BDE8F04F1047827802F00F03120679
:106520004CBF744A6C4ADB001344D3E90002514665
:1065300090470028C7D09AF8020000F00F03013BF3
:10654000062BC0D801B0BDE8F04F0AF07BBC674B0A
:106550005B680BB108209847654B1C68002CB2D0D3
:10656000636820461B685146984723681C68002CC6
:10657000F6D1A8E75D4B5B680BB1092098475C4BEF
:106580001C68002C9FD0636820461B6851469847C2
:1065900023681C68002CF6D195E7544B5B680BB15F
:1065A0000A209847524B1C68002C8CD06368204608
:1065B0001B685146984723681C68002CF6D182E777
:1065C0004A4B5B680BB10F209847494B1C68002C65
:1065D0003FF479AF636820461B68514698472368AB
:1065E0001C68002CF6D16EE73E4D2B78062B00F090
:1065F0002B82072B02D0052B7FF465AF0AF00EFB30
:1066000002232B705FE7DFF8E890D9F80070002FC5
:1066100000F0408197F808A0BAF1000F00F0358132
:106620004FF00008444607F109057B68DB6813B1A9
:106630002146384698473B7AA34240F2A3816E78C0
:10664000002E00F019810024234632460AE0AB7880
:106650002A190134D05C0AF0DFFFE3B29E4240F217
:106660000B816A789A42F2D800231B78FFDEDFF8AC
:106670008090D9F80070002F00F0578197F808B08B
:10668000BBF1000F00F04C814FF00008444607F1C9
:1066900009057B68DB6813B12146384698473B7A89
:1066A000A34240F26F816E78002E00F0308100240A
:1066B000234632460AE0AB782A190134D05C0AF04E
:1066C000ABFFE3B29E4240F222816A789A42F2D84E
:1066D00000231B78FFDE00BF0C0C0120DCE0010072
:1066E000740D0120840D0120B8E00100B80B0120D9
:1066F000700D0120C40B0120A44D2B78032B00F05A
:10670000A8810AF04BFA00283FF4DDAE2B789A1EE0
:10671000D2B2062A40F2DD819D4808F06BFD2B784D
:10672000022B00F0CD81082B00F0CA8106232B70CC
:10673000C9E6964D2B78082B00F07E819A1ED2B2C6
:10674000062A40F2B781924808F054FD2B78022BBC
:1067500000F0AA81082B00F0A78105232B708D4B38
:106760005B680BB1032098478B4B5146D3E900027D
:1067700090478A4B1C68002C3FF4A5AE6368204606
:106780001B685146984723681C68002CF6D19AE68E
:106790007E4D2B78032B7FF496AE0BF0AFF90028DB
:1067A0003FF491AE2B789A1ED2B2062A0BD87C49C0
:1067B0008A5C12B108F04CFD2B78022B00F092811C
:1067C000082B00F08F8104232B707CE66F4B1B7825
:1067D000032B00F05581082B00F052816D4B5B6854
:1067E0000BB1002098476F4B1C68002C3FF46BAE38
:1067F000636820461B685146984723685C68002CF4
:10680000F6D160E6634B5B680BB103209847624B9F
:106810006549D3E900029047604B1C684CB1624D5A
:10682000636820461B682946984723681C68002C2B
:10683000F6D1564D2B78062B00F00381082B0ED095
:106840009A1ED2B2062A40F23E81514808F0D2FC8C
:106850002B78022B03D0082B01D00AF0DFF902239A
:106860002B7030E6636820461B68514698472368C2
:106870001C68002CF6D147E608F101085FFA88F49D
:10688000A24505F103053FF6D0AE3B681F68002F17
:106890007FF4C0AE3D4D0AF079FF2A78931EDBB23B
:1068A000062B0BD83E49CB5C13B108F0D1FC2A78FB
:1068B000022A01D0082A01D10AF0A6F9D9F800402D
:1068C00000232B704CB1394E636820461B6831465B
:1068D000984723681C68002CF6D12F4B3349D3E925
:1068E000000290472B4B5B680BB10E2098472B782A
:1068F000023BDBB2062B3FF6E6AD294AD35C002B08
:106900003FF4E1AD01B0BDE8F04F08F0A1BC08F1E3
:1069100001085FFA88F45C4505F10305FFF4B9AEA0
:106920003B681F68002F7FF4A9AE184D00F022FCD1
:106930002A78931EDBB2062B79D81949CB5C002B41
:1069400075D0022A03D0082A01D00AF067F9114B4A
:106950005B6802222A700BB1012098470E4B51460A
:10696000D3E900029047D9F80040002C3FF4ABADCA
:10697000636820461B685146984723681C68002CB2
:10698000F6D1A0E500235B78FFDE00BF840D012077
:1069900008000020B80B01200C0C0120700D012014
:1069A000B8E00100740D0120E8E00100E0E0010022
:1069B0004E4D636820461B682946984723681C682B
:1069C000002CF6D1DFF834A1DAF804300BB10D2039
:1069D0009847D9F80070002F3FF457AD97F808900A
:1069E000B9F1000F58D04FF00008444607F10905EF
:1069F0007B68DB6813B12146384698473B7AA3424F
:106A0000C0D96E78002E3FD000242346324609E0DC
:106A1000AB782A190134D05C0AF0FEFDE3B29E4245
:106A200032D96A789A42F3D800231B78FFDE3048C7
:106A300008F0E0FB2A7884E702232B700AF0F8F8CC
:106A40008DE607232B703EE50AF0E8F808232B704B
:106A500039E50BF053F800283FF453AE2B789A1E1B
:106A6000D2B2062A09D823498A5C12B108F0F0FB99
:106A70002B78022B33D0082B31D004232B7040E627
:106A80001D48FFF75FFCA9E608F101085FFA88F4EA
:106A9000A14505F10305ABD83B681F68002F9DD1C8
:106AA000F3E40AF0B1F80CE50AF0AEF855E69AF80E
:106AB0000800F2E40F498A5C002A7FF448AE42E6FF
:106AC0000AF0A2F832E60B498A5C002A7FF4C1AED4
:106AD000BBE608498A5C002A7FF422AE1CE60AF075
